{
  "_format": "hh-sol-artifact-1",
  "contractName": "SPULandNFT",
  "sourceName": "contracts/SPULandNFT.sol",
  "abi": [
    {
      "anonymous": false,
      "inputs": [
        {
          "indexed": true,
          "internalType": "address",
          "name": "owner",
          "type": "address"
        },
        {
          "indexed": true,
          "internalType": "address",
          "name": "approved",
          "type": "address"
        },
        {
          "indexed": true,
          "internalType": "uint256",
          "name": "tokenId",
          "type": "uint256"
        }
      ],
      "name": "Approval",
      "type": "event"
    },
    {
      "anonymous": false,
      "inputs": [
        {
          "indexed": true,
          "internalType": "address",
          "name": "owner",
          "type": "address"
        },
        {
          "indexed": true,
          "internalType": "address",
          "name": "operator",
          "type": "address"
        },
        {
          "indexed": false,
          "internalType": "bool",
          "name": "approved",
          "type": "bool"
        }
      ],
      "name": "ApprovalForAll",
      "type": "event"
    },
    {
      "anonymous": false,
      "inputs": [
        {
          "indexed": false,
          "internalType": "uint8",
          "name": "version",
          "type": "uint8"
        }
      ],
      "name": "Initialized",
      "type": "event"
    },
    {
      "anonymous": false,
      "inputs": [
        {
          "indexed": true,
          "internalType": "bytes32",
          "name": "role",
          "type": "bytes32"
        },
        {
          "indexed": true,
          "internalType": "bytes32",
          "name": "previousAdminRole",
          "type": "bytes32"
        },
        {
          "indexed": true,
          "internalType": "bytes32",
          "name": "newAdminRole",
          "type": "bytes32"
        }
      ],
      "name": "RoleAdminChanged",
      "type": "event"
    },
    {
      "anonymous": false,
      "inputs": [
        {
          "indexed": true,
          "internalType": "bytes32",
          "name": "role",
          "type": "bytes32"
        },
        {
          "indexed": true,
          "internalType": "address",
          "name": "account",
          "type": "address"
        },
        {
          "indexed": true,
          "internalType": "address",
          "name": "sender",
          "type": "address"
        }
      ],
      "name": "RoleGranted",
      "type": "event"
    },
    {
      "anonymous": false,
      "inputs": [
        {
          "indexed": true,
          "internalType": "bytes32",
          "name": "role",
          "type": "bytes32"
        },
        {
          "indexed": true,
          "internalType": "address",
          "name": "account",
          "type": "address"
        },
        {
          "indexed": true,
          "internalType": "address",
          "name": "sender",
          "type": "address"
        }
      ],
      "name": "RoleRevoked",
      "type": "event"
    },
    {
      "anonymous": false,
      "inputs": [
        {
          "indexed": true,
          "internalType": "address",
          "name": "from",
          "type": "address"
        },
        {
          "indexed": true,
          "internalType": "address",
          "name": "to",
          "type": "address"
        },
        {
          "indexed": true,
          "internalType": "uint256",
          "name": "tokenId",
          "type": "uint256"
        }
      ],
      "name": "Transfer",
      "type": "event"
    },
    {
      "anonymous": false,
      "inputs": [
        {
          "indexed": true,
          "internalType": "uint256",
          "name": "tokenId",
          "type": "uint256"
        },
        {
          "indexed": true,
          "internalType": "address",
          "name": "user",
          "type": "address"
        },
        {
          "indexed": false,
          "internalType": "uint64",
          "name": "expires",
          "type": "uint64"
        }
      ],
      "name": "UpdateUser",
      "type": "event"
    },
    {
      "inputs": [],
      "name": "DEFAULT_ADMIN_ROLE",
      "outputs": [
        {
          "internalType": "bytes32",
          "name": "",
          "type": "bytes32"
        }
      ],
      "stateMutability": "view",
      "type": "function"
    },
    {
      "inputs": [
        {
          "internalType": "address",
          "name": "to",
          "type": "address"
        },
        {
          "internalType": "uint256",
          "name": "tokenId",
          "type": "uint256"
        }
      ],
      "name": "approve",
      "outputs": [],
      "stateMutability": "nonpayable",
      "type": "function"
    },
    {
      "inputs": [
        {
          "internalType": "address",
          "name": "owner",
          "type": "address"
        }
      ],
      "name": "balanceOf",
      "outputs": [
        {
          "internalType": "uint256",
          "name": "",
          "type": "uint256"
        }
      ],
      "stateMutability": "view",
      "type": "function"
    },
    {
      "inputs": [],
      "name": "dailyPrice",
      "outputs": [
        {
          "internalType": "uint256",
          "name": "",
          "type": "uint256"
        }
      ],
      "stateMutability": "view",
      "type": "function"
    },
    {
      "inputs": [
        {
          "internalType": "uint256",
          "name": "tokenId",
          "type": "uint256"
        }
      ],
      "name": "getApproved",
      "outputs": [
        {
          "internalType": "address",
          "name": "",
          "type": "address"
        }
      ],
      "stateMutability": "view",
      "type": "function"
    },
    {
      "inputs": [
        {
          "internalType": "bytes32",
          "name": "role",
          "type": "bytes32"
        }
      ],
      "name": "getRoleAdmin",
      "outputs": [
        {
          "internalType": "bytes32",
          "name": "",
          "type": "bytes32"
        }
      ],
      "stateMutability": "view",
      "type": "function"
    },
    {
      "inputs": [
        {
          "internalType": "bytes32",
          "name": "role",
          "type": "bytes32"
        },
        {
          "internalType": "address",
          "name": "account",
          "type": "address"
        }
      ],
      "name": "grantRole",
      "outputs": [],
      "stateMutability": "nonpayable",
      "type": "function"
    },
    {
      "inputs": [
        {
          "internalType": "bytes32",
          "name": "role",
          "type": "bytes32"
        },
        {
          "internalType": "address",
          "name": "account",
          "type": "address"
        }
      ],
      "name": "hasRole",
      "outputs": [
        {
          "internalType": "bool",
          "name": "",
          "type": "bool"
        }
      ],
      "stateMutability": "view",
      "type": "function"
    },
    {
      "inputs": [
        {
          "internalType": "uint256",
          "name": "rip_",
          "type": "uint256"
        },
        {
          "internalType": "uint256",
          "name": "fractions_",
          "type": "uint256"
        },
        {
          "internalType": "uint256",
          "name": "dailyPrice_",
          "type": "uint256"
        }
      ],
      "name": "initialize",
      "outputs": [],
      "stateMutability": "nonpayable",
      "type": "function"
    },
    {
      "inputs": [
        {
          "internalType": "address",
          "name": "owner",
          "type": "address"
        },
        {
          "internalType": "address",
          "name": "operator",
          "type": "address"
        }
      ],
      "name": "isApprovedForAll",
      "outputs": [
        {
          "internalType": "bool",
          "name": "",
          "type": "bool"
        }
      ],
      "stateMutability": "view",
      "type": "function"
    },
    {
      "inputs": [
        {
          "internalType": "uint256",
          "name": "timestamp",
          "type": "uint256"
        }
      ],
      "name": "leased",
      "outputs": [
        {
          "internalType": "uint256",
          "name": "_leased",
          "type": "uint256"
        }
      ],
      "stateMutability": "view",
      "type": "function"
    },
    {
      "inputs": [
        {
          "internalType": "uint256",
          "name": "timestamp_",
          "type": "uint256"
        },
        {
          "internalType": "address",
          "name": "wallet_",
          "type": "address"
        }
      ],
      "name": "leasedByWallet",
      "outputs": [
        {
          "internalType": "uint256",
          "name": "_leased",
          "type": "uint256"
        }
      ],
      "stateMutability": "view",
      "type": "function"
    },
    {
      "inputs": [],
      "name": "name",
      "outputs": [
        {
          "internalType": "string",
          "name": "",
          "type": "string"
        }
      ],
      "stateMutability": "view",
      "type": "function"
    },
    {
      "inputs": [
        {
          "internalType": "uint256",
          "name": "tokenId",
          "type": "uint256"
        }
      ],
      "name": "ownerOf",
      "outputs": [
        {
          "internalType": "address",
          "name": "",
          "type": "address"
        }
      ],
      "stateMutability": "view",
      "type": "function"
    },
    {
      "inputs": [
        {
          "internalType": "bytes32",
          "name": "role",
          "type": "bytes32"
        },
        {
          "internalType": "address",
          "name": "account",
          "type": "address"
        }
      ],
      "name": "renounceRole",
      "outputs": [],
      "stateMutability": "nonpayable",
      "type": "function"
    },
    {
      "inputs": [
        {
          "internalType": "bytes32",
          "name": "role",
          "type": "bytes32"
        },
        {
          "internalType": "address",
          "name": "account",
          "type": "address"
        }
      ],
      "name": "revokeRole",
      "outputs": [],
      "stateMutability": "nonpayable",
      "type": "function"
    },
    {
      "inputs": [],
      "name": "rip",
      "outputs": [
        {
          "internalType": "uint256",
          "name": "",
          "type": "uint256"
        }
      ],
      "stateMutability": "view",
      "type": "function"
    },
    {
      "inputs": [
        {
          "internalType": "address",
          "name": "from",
          "type": "address"
        },
        {
          "internalType": "address",
          "name": "to",
          "type": "address"
        },
        {
          "internalType": "uint256",
          "name": "tokenId",
          "type": "uint256"
        }
      ],
      "name": "safeTransferFrom",
      "outputs": [],
      "stateMutability": "nonpayable",
      "type": "function"
    },
    {
      "inputs": [
        {
          "internalType": "address",
          "name": "from",
          "type": "address"
        },
        {
          "internalType": "address",
          "name": "to",
          "type": "address"
        },
        {
          "internalType": "uint256",
          "name": "tokenId",
          "type": "uint256"
        },
        {
          "internalType": "bytes",
          "name": "data",
          "type": "bytes"
        }
      ],
      "name": "safeTransferFrom",
      "outputs": [],
      "stateMutability": "nonpayable",
      "type": "function"
    },
    {
      "inputs": [
        {
          "internalType": "address",
          "name": "operator",
          "type": "address"
        },
        {
          "internalType": "bool",
          "name": "approved",
          "type": "bool"
        }
      ],
      "name": "setApprovalForAll",
      "outputs": [],
      "stateMutability": "nonpayable",
      "type": "function"
    },
    {
      "inputs": [
        {
          "internalType": "uint256",
          "name": "tokenId",
          "type": "uint256"
        },
        {
          "internalType": "address",
          "name": "user",
          "type": "address"
        },
        {
          "internalType": "uint64",
          "name": "expires",
          "type": "uint64"
        }
      ],
      "name": "setUser",
      "outputs": [],
      "stateMutability": "nonpayable",
      "type": "function"
    },
    {
      "inputs": [
        {
          "internalType": "bytes4",
          "name": "interfaceId",
          "type": "bytes4"
        }
      ],
      "name": "supportsInterface",
      "outputs": [
        {
          "internalType": "bool",
          "name": "",
          "type": "bool"
        }
      ],
      "stateMutability": "view",
      "type": "function"
    },
    {
      "inputs": [],
      "name": "symbol",
      "outputs": [
        {
          "internalType": "string",
          "name": "",
          "type": "string"
        }
      ],
      "stateMutability": "view",
      "type": "function"
    },
    {
      "inputs": [
        {
          "internalType": "uint256",
          "name": "index",
          "type": "uint256"
        }
      ],
      "name": "tokenByIndex",
      "outputs": [
        {
          "internalType": "uint256",
          "name": "",
          "type": "uint256"
        }
      ],
      "stateMutability": "view",
      "type": "function"
    },
    {
      "inputs": [
        {
          "internalType": "address",
          "name": "owner",
          "type": "address"
        },
        {
          "internalType": "uint256",
          "name": "index",
          "type": "uint256"
        }
      ],
      "name": "tokenOfOwnerByIndex",
      "outputs": [
        {
          "internalType": "uint256",
          "name": "",
          "type": "uint256"
        }
      ],
      "stateMutability": "view",
      "type": "function"
    },
    {
      "inputs": [
        {
          "internalType": "uint256",
          "name": "tokenId",
          "type": "uint256"
        }
      ],
      "name": "tokenURI",
      "outputs": [
        {
          "internalType": "string",
          "name": "",
          "type": "string"
        }
      ],
      "stateMutability": "view",
      "type": "function"
    },
    {
      "inputs": [],
      "name": "totalSupply",
      "outputs": [
        {
          "internalType": "uint256",
          "name": "",
          "type": "uint256"
        }
      ],
      "stateMutability": "view",
      "type": "function"
    },
    {
      "inputs": [
        {
          "internalType": "address",
          "name": "from",
          "type": "address"
        },
        {
          "internalType": "address",
          "name": "to",
          "type": "address"
        },
        {
          "internalType": "uint256",
          "name": "tokenId",
          "type": "uint256"
        }
      ],
      "name": "transferFrom",
      "outputs": [],
      "stateMutability": "nonpayable",
      "type": "function"
    },
    {
      "inputs": [
        {
          "internalType": "uint256",
          "name": "tokenId",
          "type": "uint256"
        }
      ],
      "name": "userExpires",
      "outputs": [
        {
          "internalType": "uint256",
          "name": "",
          "type": "uint256"
        }
      ],
      "stateMutability": "view",
      "type": "function"
    },
    {
      "inputs": [
        {
          "internalType": "uint256",
          "name": "tokenId",
          "type": "uint256"
        }
      ],
      "name": "userOf",
      "outputs": [
        {
          "internalType": "address",
          "name": "",
          "type": "address"
        }
      ],
      "stateMutability": "view",
      "type": "function"
    }
  ],
  "bytecode": "0x608060405234801561001057600080fd5b50614916806100206000396000f3fe608060405234801561001057600080fd5b50600436106101da5760003560e01c806380d8591111610104578063b88d4fde116100a2578063e030565e11610071578063e030565e146105c3578063e14a6258146105df578063e985e9c5146105fd578063fa66a5f41461062d576101da565b8063b88d4fde1461052b578063c2f1f14a14610547578063c87b56dd14610577578063d547741f146105a7576101da565b80639209ad73116100de5780639209ad73146104a357806395d89b41146104d3578063a217fddf146104f1578063a22cb4651461050f576101da565b806380d85911146104275780638fc88c481461044357806391d1485414610473576101da565b80632f2ff15d1161017c5780634f6ccce71161014b5780634f6ccce714610367578063629f3342146103975780636352211e146103c757806370a08231146103f7576101da565b80632f2ff15d146102e35780632f745c59146102ff57806336568abe1461032f57806342842e0e1461034b576101da565b8063095ea7b3116101b8578063095ea7b31461025d57806318160ddd1461027957806323b872dd14610297578063248a9ca3146102b3576101da565b806301ffc9a7146101df57806306fdde031461020f578063081812fc1461022d575b600080fd5b6101f960048036038101906101f49190613030565b61064b565b6040516102069190613078565b60405180910390f35b61021761072d565b6040516102249190613123565b60405180910390f35b6102476004803603810190610242919061317b565b6107bf565b60405161025491906131e9565b60405180910390f35b61027760048036038101906102729190613230565b610805565b005b61028161091c565b60405161028e919061327f565b60405180910390f35b6102b160048036038101906102ac919061329a565b610929565b005b6102cd60048036038101906102c89190613323565b610989565b6040516102da919061335f565b60405180910390f35b6102fd60048036038101906102f8919061337a565b6109a9565b005b61031960048036038101906103149190613230565b6109ca565b604051610326919061327f565b60405180910390f35b6103496004803603810190610344919061337a565b610a6f565b005b6103656004803603810190610360919061329a565b610af2565b005b610381600480360381019061037c919061317b565b610b12565b60405161038e919061327f565b60405180910390f35b6103b160048036038101906103ac919061317b565b610b83565b6040516103be919061327f565b60405180910390f35b6103e160048036038101906103dc919061317b565b610bfd565b6040516103ee91906131e9565b60405180910390f35b610411600480360381019061040c91906133ba565b610c83565b60405161041e919061327f565b60405180910390f35b610441600480360381019061043c91906133e7565b610d3a565b005b61045d6004803603810190610458919061317b565b610f41565b60405161046a919061327f565b60405180910390f35b61048d6004803603810190610488919061337a565b610f7f565b60405161049a9190613078565b60405180910390f35b6104bd60048036038101906104b8919061343a565b610fea565b6040516104ca919061327f565b60405180910390f35b6104db6110d4565b6040516104e89190613123565b60405180910390f35b6104f9611166565b604051610506919061335f565b60405180910390f35b610529600480360381019061052491906134a6565b61116d565b005b6105456004803603810190610540919061361b565b611183565b005b610561600480360381019061055c919061317b565b6111e5565b60405161056e91906131e9565b60405180910390f35b610591600480360381019061058c919061317b565b61126a565b60405161059e9190613123565b60405180910390f35b6105c160048036038101906105bc919061337a565b6112d2565b005b6105dd60048036038101906105d891906136de565b6112f3565b005b6105e7611416565b6040516105f4919061327f565b60405180910390f35b61061760048036038101906106129190613731565b61141c565b6040516106249190613078565b60405180910390f35b6106356114b0565b604051610642919061327f565b60405180910390f35b60007fda8def73000000000000000000000000000000000000000000000000000000007bffffffffffffffffffffffffffffffffffffffffffffffffffffffff1916827bffffffffffffffffffffffffffffffffffffffffffffffffffffffff1916148061071657507fad092b5c000000000000000000000000000000000000000000000000000000007bffffffffffffffffffffffffffffffffffffffffffffffffffffffff1916827bffffffffffffffffffffffffffffffffffffffffffffffffffffffff1916145b806107265750610725826114b6565b5b9050919050565b60606065805461073c906137a0565b80601f0160208091040260200160405190810160405280929190818152602001828054610768906137a0565b80156107b55780601f1061078a576101008083540402835291602001916107b5565b820191906000526020600020905b81548152906001019060200180831161079857829003601f168201915b5050505050905090565b60006107ca82611530565b6069600083815260200190815260200160002060009054906101000a900473ffffffffffffffffffffffffffffffffffffffff169050919050565b600061081082610bfd565b90508073ffffffffffffffffffffffffffffffffffffffff168373ffffffffffffffffffffffffffffffffffffffff1603610880576040517f08c379a000000000000000000000000000000000000000000000000000000000815260040161087790613843565b60405180910390fd5b8073ffffffffffffffffffffffffffffffffffffffff1661089f61157b565b73ffffffffffffffffffffffffffffffffffffffff1614806108ce57506108cd816108c861157b565b61141c565b5b61090d576040517f08c379a0000000000000000000000000000000000000000000000000000000008152600401610904906138d5565b60405180910390fd5b6109178383611583565b505050565b6000609980549050905090565b61093a61093461157b565b8261163c565b610979576040517f08c379a000000000000000000000000000000000000000000000000000000000815260040161097090613967565b60405180910390fd5b6109848383836116d1565b505050565b600060c96000838152602001908152602001600020600101549050919050565b6109b282610989565b6109bb816119ca565b6109c583836119de565b505050565b60006109d583610c83565b8210610a16576040517f08c379a0000000000000000000000000000000000000000000000000000000008152600401610a0d906139f9565b60405180910390fd5b609760008473ffffffffffffffffffffffffffffffffffffffff1673ffffffffffffffffffffffffffffffffffffffff168152602001908152602001600020600083815260200190815260200160002054905092915050565b610a7761157b565b73ffffffffffffffffffffffffffffffffffffffff168173ffffffffffffffffffffffffffffffffffffffff1614610ae4576040517f08c379a0000000000000000000000000000000000000000000000000000000008152600401610adb90613a8b565b60405180910390fd5b610aee8282611abf565b5050565b610b0d83838360405180602001604052806000815250611183565b505050565b6000610b1c61091c565b8210610b5d576040517f08c379a0000000000000000000000000000000000000000000000000000000008152600401610b5490613b1d565b60405180910390fd5b60998281548110610b7157610b70613b3d565b5b90600052602060002001549050919050565b600080600090505b610b9361091c565b811015610bf7578260fd600083815260200190815260200160002060000160149054906101000a900467ffffffffffffffff1667ffffffffffffffff1610610be4578180610be090613b9b565b9250505b8080610bef90613b9b565b915050610b8b565b50919050565b600080610c0983611ba1565b9050600073ffffffffffffffffffffffffffffffffffffffff168173ffffffffffffffffffffffffffffffffffffffff1603610c7a576040517f08c379a0000000000000000000000000000000000000000000000000000000008152600401610c7190613c2f565b60405180910390fd5b80915050919050565b60008073ffffffffffffffffffffffffffffffffffffffff168273ffffffffffffffffffffffffffffffffffffffff1603610cf3576040517f08c379a0000000000000000000000000000000000000000000000000000000008152600401610cea90613cc1565b60405180910390fd5b606860008373ffffffffffffffffffffffffffffffffffffffff1673ffffffffffffffffffffffffffffffffffffffff168152602001908152602001600020549050919050565b60008060019054906101000a900460ff16159050808015610d6b5750600160008054906101000a900460ff1660ff16105b80610d985750610d7a30611bde565b158015610d975750600160008054906101000a900460ff1660ff16145b5b610dd7576040517f08c379a0000000000000000000000000000000000000000000000000000000008152600401610dce90613d53565b60405180910390fd5b60016000806101000a81548160ff021916908360ff1602179055508015610e14576001600060016101000a81548160ff0219169083151502179055505b8360fc819055508160fb81905550610e966040518060400160405280600781526020017f5350554c616e64000000000000000000000000000000000000000000000000008152506040518060400160405280600481526020017f5350554c00000000000000000000000000000000000000000000000000000000815250611c01565b610e9e611c5e565b610eb26000801b610ead61157b565b6119de565b60005b83811015610ee157610ece610ec861157b565b82611caf565b8080610ed990613b9b565b915050610eb5565b508015610f3b5760008060016101000a81548160ff0219169083151502179055507f7f26b83ff96e1f2b6a682f133852f6798a09c465da95921460cefb38474024986001604051610f329190613dc5565b60405180910390a15b50505050565b600060fd600083815260200190815260200160002060000160149054906101000a900467ffffffffffffffff1667ffffffffffffffff169050919050565b600060c9600084815260200190815260200160002060000160008373ffffffffffffffffffffffffffffffffffffffff1673ffffffffffffffffffffffffffffffffffffffff16815260200190815260200160002060009054906101000a900460ff16905092915050565b600080600090505b610ffa61091c565b8110156110cd578360fd600083815260200190815260200160002060000160149054906101000a900467ffffffffffffffff1667ffffffffffffffff16101580156110a657508273ffffffffffffffffffffffffffffffffffffffff1660fd600083815260200190815260200160002060000160009054906101000a900473ffffffffffffffffffffffffffffffffffffffff1673ffffffffffffffffffffffffffffffffffffffff16145b156110ba5781806110b690613b9b565b9250505b80806110c590613b9b565b915050610ff2565b5092915050565b6060606680546110e3906137a0565b80601f016020809104026020016040519081016040528092919081815260200182805461110f906137a0565b801561115c5780601f106111315761010080835404028352916020019161115c565b820191906000526020600020905b81548152906001019060200180831161113f57829003601f168201915b5050505050905090565b6000801b81565b61117f61117861157b565b8383611ccd565b5050565b61119461118e61157b565b8361163c565b6111d3576040517f08c379a00000000000000000000000000000000000000000000000000000000081526004016111ca90613967565b60405180910390fd5b6111df84848484611e39565b50505050565b60004260fd600084815260200190815260200160002060000160149054906101000a900467ffffffffffffffff1667ffffffffffffffff16106112605760fd600083815260200190815260200160002060000160009054906101000a900473ffffffffffffffffffffffffffffffffffffffff169050611265565b600090505b919050565b606061127582611530565b600061127f611e95565b9050600081511161129f57604051806020016040528060008152506112ca565b806112a984611eac565b6040516020016112ba929190613e1c565b6040516020818303038152906040525b915050919050565b6112db82610989565b6112e4816119ca565b6112ee8383611abf565b505050565b6112fd338461163c565b61133c576040517f08c379a000000000000000000000000000000000000000000000000000000000815260040161133390613eb2565b60405180910390fd5b600060fd60008581526020019081526020016000209050828160000160006101000a81548173ffffffffffffffffffffffffffffffffffffffff021916908373ffffffffffffffffffffffffffffffffffffffff160217905550818160000160146101000a81548167ffffffffffffffff021916908367ffffffffffffffff1602179055508273ffffffffffffffffffffffffffffffffffffffff16847f4e06b4e7000e659094299b3533b47b6aa8ad048e95e872d23d1f4ee55af89cfe846040516114089190613ee1565b60405180910390a350505050565b60fc5481565b6000606a60008473ffffffffffffffffffffffffffffffffffffffff1673ffffffffffffffffffffffffffffffffffffffff16815260200190815260200160002060008373ffffffffffffffffffffffffffffffffffffffff1673ffffffffffffffffffffffffffffffffffffffff16815260200190815260200160002060009054906101000a900460ff16905092915050565b60fb5481565b60007f7965db0b000000000000000000000000000000000000000000000000000000007bffffffffffffffffffffffffffffffffffffffffffffffffffffffff1916827bffffffffffffffffffffffffffffffffffffffffffffffffffffffff19161480611529575061152882611f7a565b5b9050919050565b61153981611ff4565b611578576040517f08c379a000000000000000000000000000000000000000000000000000000000815260040161156f90613c2f565b60405180910390fd5b50565b600033905090565b816069600083815260200190815260200160002060006101000a81548173ffffffffffffffffffffffffffffffffffffffff021916908373ffffffffffffffffffffffffffffffffffffffff160217905550808273ffffffffffffffffffffffffffffffffffffffff166115f683610bfd565b73ffffffffffffffffffffffffffffffffffffffff167f8c5be1e5ebec7d5bd14f71427d1e84f3dd0314c0f7b2291e5b200ac8c7c3b92560405160405180910390a45050565b60008061164883610bfd565b90508073ffffffffffffffffffffffffffffffffffffffff168473ffffffffffffffffffffffffffffffffffffffff16148061168a5750611689818561141c565b5b806116c857508373ffffffffffffffffffffffffffffffffffffffff166116b0846107bf565b73ffffffffffffffffffffffffffffffffffffffff16145b91505092915050565b8273ffffffffffffffffffffffffffffffffffffffff166116f182610bfd565b73ffffffffffffffffffffffffffffffffffffffff1614611747576040517f08c379a000000000000000000000000000000000000000000000000000000000815260040161173e90613f6e565b60405180910390fd5b600073ffffffffffffffffffffffffffffffffffffffff168273ffffffffffffffffffffffffffffffffffffffff16036117b6576040517f08c379a00000000000000000000000000000000000000000000000000000000081526004016117ad90614000565b60405180910390fd5b6117c38383836001612035565b8273ffffffffffffffffffffffffffffffffffffffff166117e382610bfd565b73ffffffffffffffffffffffffffffffffffffffff1614611839576040517f08c379a000000000000000000000000000000000000000000000000000000000815260040161183090613f6e565b60405180910390fd5b6069600082815260200190815260200160002060006101000a81549073ffffffffffffffffffffffffffffffffffffffff02191690556001606860008573ffffffffffffffffffffffffffffffffffffffff1673ffffffffffffffffffffffffffffffffffffffff168152602001908152602001600020600082825403925050819055506001606860008473ffffffffffffffffffffffffffffffffffffffff1673ffffffffffffffffffffffffffffffffffffffff16815260200190815260200160002060008282540192505081905550816067600083815260200190815260200160002060006101000a81548173ffffffffffffffffffffffffffffffffffffffff021916908373ffffffffffffffffffffffffffffffffffffffff160217905550808273ffffffffffffffffffffffffffffffffffffffff168473ffffffffffffffffffffffffffffffffffffffff167fddf252ad1be2c89b69c2b068fc378daa952ba7f163c4a11628f55a4df523b3ef60405160405180910390a46119c58383836001612193565b505050565b6119db816119d661157b565b612199565b50565b6119e88282610f7f565b611abb57600160c9600084815260200190815260200160002060000160008373ffffffffffffffffffffffffffffffffffffffff1673ffffffffffffffffffffffffffffffffffffffff16815260200190815260200160002060006101000a81548160ff021916908315150217905550611a6061157b565b73ffffffffffffffffffffffffffffffffffffffff168173ffffffffffffffffffffffffffffffffffffffff16837f2f8788117e7eff1d82e926ec794901d17c78024a50270940304540a733656f0d60405160405180910390a45b5050565b611ac98282610f7f565b15611b9d57600060c9600084815260200190815260200160002060000160008373ffffffffffffffffffffffffffffffffffffffff1673ffffffffffffffffffffffffffffffffffffffff16815260200190815260200160002060006101000a81548160ff021916908315150217905550611b4261157b565b73ffffffffffffffffffffffffffffffffffffffff168173ffffffffffffffffffffffffffffffffffffffff16837ff6391f5c32d9c69d2a47ea670b442974b53935d1edc7fd64eb21e047a839171b60405160405180910390a45b5050565b60006067600083815260200190815260200160002060009054906101000a900473ffffffffffffffffffffffffffffffffffffffff169050919050565b6000808273ffffffffffffffffffffffffffffffffffffffff163b119050919050565b600060019054906101000a900460ff16611c50576040517f08c379a0000000000000000000000000000000000000000000000000000000008152600401611c4790614092565b60405180910390fd5b611c5a828261221e565b5050565b600060019054906101000a900460ff16611cad576040517f08c379a0000000000000000000000000000000000000000000000000000000008152600401611ca490614092565b60405180910390fd5b565b611cc9828260405180602001604052806000815250612291565b5050565b8173ffffffffffffffffffffffffffffffffffffffff168373ffffffffffffffffffffffffffffffffffffffff1603611d3b576040517f08c379a0000000000000000000000000000000000000000000000000000000008152600401611d32906140fe565b60405180910390fd5b80606a60008573ffffffffffffffffffffffffffffffffffffffff1673ffffffffffffffffffffffffffffffffffffffff16815260200190815260200160002060008473ffffffffffffffffffffffffffffffffffffffff1673ffffffffffffffffffffffffffffffffffffffff16815260200190815260200160002060006101000a81548160ff0219169083151502179055508173ffffffffffffffffffffffffffffffffffffffff168373ffffffffffffffffffffffffffffffffffffffff167f17307eab39ab6107e8899845ad3d59bd9653f200f220920489ca2b5937696c3183604051611e2c9190613078565b60405180910390a3505050565b611e448484846116d1565b611e50848484846122ec565b611e8f576040517f08c379a0000000000000000000000000000000000000000000000000000000008152600401611e8690614190565b60405180910390fd5b50505050565b606060405180602001604052806000815250905090565b606060006001611ebb84612473565b01905060008167ffffffffffffffff811115611eda57611ed96134f0565b5b6040519080825280601f01601f191660200182016040528015611f0c5781602001600182028036833780820191505090505b509050600082602001820190505b600115611f6f578080600190039150507f3031323334353637383961626364656600000000000000000000000000000000600a86061a8153600a8581611f6357611f626141b0565b5b04945060008503611f1a575b819350505050919050565b60007f780e9d63000000000000000000000000000000000000000000000000000000007bffffffffffffffffffffffffffffffffffffffffffffffffffffffff1916827bffffffffffffffffffffffffffffffffffffffffffffffffffffffff19161480611fed5750611fec826125c6565b5b9050919050565b60008073ffffffffffffffffffffffffffffffffffffffff1661201683611ba1565b73ffffffffffffffffffffffffffffffffffffffff1614159050919050565b612041848484846126a8565b6001811115612085576040517f08c379a000000000000000000000000000000000000000000000000000000000815260040161207c90614251565b60405180910390fd5b6000829050600073ffffffffffffffffffffffffffffffffffffffff168573ffffffffffffffffffffffffffffffffffffffff16036120cc576120c7816127ce565b61210b565b8373ffffffffffffffffffffffffffffffffffffffff168573ffffffffffffffffffffffffffffffffffffffff161461210a576121098582612817565b5b5b600073ffffffffffffffffffffffffffffffffffffffff168473ffffffffffffffffffffffffffffffffffffffff160361214d5761214881612984565b61218c565b8473ffffffffffffffffffffffffffffffffffffffff168473ffffffffffffffffffffffffffffffffffffffff161461218b5761218a8482612a55565b5b5b5050505050565b50505050565b6121a38282610f7f565b61221a576121b081612ad4565b6121be8360001c6020612b01565b6040516020016121cf929190614309565b6040516020818303038152906040526040517f08c379a00000000000000000000000000000000000000000000000000000000081526004016122119190613123565b60405180910390fd5b5050565b600060019054906101000a900460ff1661226d576040517f08c379a000000000000000000000000000000000000000000000000000000000815260040161226490614092565b60405180910390fd5b816065908161227c91906144e5565b50806066908161228c91906144e5565b505050565b61229b8383612d3d565b6122a860008484846122ec565b6122e7576040517f08c379a00000000000000000000000000000000000000000000000000000000081526004016122de90614190565b60405180910390fd5b505050565b600061230d8473ffffffffffffffffffffffffffffffffffffffff16611bde565b15612466578373ffffffffffffffffffffffffffffffffffffffff1663150b7a0261233661157b565b8786866040518563ffffffff1660e01b8152600401612358949392919061460c565b6020604051808303816000875af192505050801561239457506040513d601f19601f82011682018060405250810190612391919061466d565b60015b612416573d80600081146123c4576040519150601f19603f3d011682016040523d82523d6000602084013e6123c9565b606091505b50600081510361240e576040517f08c379a000000000000000000000000000000000000000000000000000000000815260040161240590614190565b60405180910390fd5b805181602001fd5b63150b7a0260e01b7bffffffffffffffffffffffffffffffffffffffffffffffffffffffff1916817bffffffffffffffffffffffffffffffffffffffffffffffffffffffff19161491505061246b565b600190505b949350505050565b600080600090507a184f03e93ff9f4daa797ed6e38ed64bf6a1f01000000000000000083106124d1577a184f03e93ff9f4daa797ed6e38ed64bf6a1f01000000000000000083816124c7576124c66141b0565b5b0492506040810190505b6d04ee2d6d415b85acef8100000000831061250e576d04ee2d6d415b85acef81000000008381612504576125036141b0565b5b0492506020810190505b662386f26fc10000831061253d57662386f26fc100008381612533576125326141b0565b5b0492506010810190505b6305f5e1008310612566576305f5e100838161255c5761255b6141b0565b5b0492506008810190505b612710831061258b576127108381612581576125806141b0565b5b0492506004810190505b606483106125ae57606483816125a4576125a36141b0565b5b0492506002810190505b600a83106125bd576001810190505b80915050919050565b60007f80ac58cd000000000000000000000000000000000000000000000000000000007bffffffffffffffffffffffffffffffffffffffffffffffffffffffff1916827bffffffffffffffffffffffffffffffffffffffffffffffffffffffff1916148061269157507f5b5e139f000000000000000000000000000000000000000000000000000000007bffffffffffffffffffffffffffffffffffffffffffffffffffffffff1916827bffffffffffffffffffffffffffffffffffffffffffffffffffffffff1916145b806126a157506126a082612f5a565b5b9050919050565b60018111156127c857600073ffffffffffffffffffffffffffffffffffffffff168473ffffffffffffffffffffffffffffffffffffffff161461273c5780606860008673ffffffffffffffffffffffffffffffffffffffff1673ffffffffffffffffffffffffffffffffffffffff1681526020019081526020016000206000828254612734919061469a565b925050819055505b600073ffffffffffffffffffffffffffffffffffffffff168373ffffffffffffffffffffffffffffffffffffffff16146127c75780606860008573ffffffffffffffffffffffffffffffffffffffff1673ffffffffffffffffffffffffffffffffffffffff16815260200190815260200160002060008282546127bf91906146ce565b925050819055505b5b50505050565b609980549050609a600083815260200190815260200160002081905550609981908060018154018082558091505060019003906000526020600020016000909190919091505550565b6000600161282484610c83565b61282e919061469a565b9050600060986000848152602001908152602001600020549050818114612913576000609760008673ffffffffffffffffffffffffffffffffffffffff1673ffffffffffffffffffffffffffffffffffffffff168152602001908152602001600020600084815260200190815260200160002054905080609760008773ffffffffffffffffffffffffffffffffffffffff1673ffffffffffffffffffffffffffffffffffffffff168152602001908152602001600020600084815260200190815260200160002081905550816098600083815260200190815260200160002081905550505b6098600084815260200190815260200160002060009055609760008573ffffffffffffffffffffffffffffffffffffffff1673ffffffffffffffffffffffffffffffffffffffff16815260200190815260200160002060008381526020019081526020016000206000905550505050565b60006001609980549050612998919061469a565b90506000609a60008481526020019081526020016000205490506000609983815481106129c8576129c7613b3d565b5b9060005260206000200154905080609983815481106129ea576129e9613b3d565b5b906000526020600020018190555081609a600083815260200190815260200160002081905550609a6000858152602001908152602001600020600090556099805480612a3957612a38614702565b5b6001900381819060005260206000200160009055905550505050565b6000612a6083610c83565b905081609760008573ffffffffffffffffffffffffffffffffffffffff1673ffffffffffffffffffffffffffffffffffffffff168152602001908152602001600020600083815260200190815260200160002081905550806098600084815260200190815260200160002081905550505050565b6060612afa8273ffffffffffffffffffffffffffffffffffffffff16601460ff16612b01565b9050919050565b606060006002836002612b149190614731565b612b1e91906146ce565b67ffffffffffffffff811115612b3757612b366134f0565b5b6040519080825280601f01601f191660200182016040528015612b695781602001600182028036833780820191505090505b5090507f300000000000000000000000000000000000000000000000000000000000000081600081518110612ba157612ba0613b3d565b5b60200101907effffffffffffffffffffffffffffffffffffffffffffffffffffffffffffff1916908160001a9053507f780000000000000000000000000000000000000000000000000000000000000081600181518110612c0557612c04613b3d565b5b60200101907effffffffffffffffffffffffffffffffffffffffffffffffffffffffffffff1916908160001a90535060006001846002612c459190614731565b612c4f91906146ce565b90505b6001811115612cef577f3031323334353637383961626364656600000000000000000000000000000000600f861660108110612c9157612c90613b3d565b5b1a60f81b828281518110612ca857612ca7613b3d565b5b60200101907effffffffffffffffffffffffffffffffffffffffffffffffffffffffffffff1916908160001a905350600485901c945080612ce890614773565b9050612c52565b5060008414612d33576040517f08c379a0000000000000000000000000000000000000000000000000000000008152600401612d2a906147e8565b60405180910390fd5b8091505092915050565b600073ffffffffffffffffffffffffffffffffffffffff168273ffffffffffffffffffffffffffffffffffffffff1603612dac576040517f08c379a0000000000000000000000000000000000000000000000000000000008152600401612da390614854565b60405180910390fd5b612db581611ff4565b15612df5576040517f08c379a0000000000000000000000000000000000000000000000000000000008152600401612dec906148c0565b60405180910390fd5b612e03600083836001612035565b612e0c81611ff4565b15612e4c576040517f08c379a0000000000000000000000000000000000000000000000000000000008152600401612e43906148c0565b60405180910390fd5b6001606860008473ffffffffffffffffffffffffffffffffffffffff1673ffffffffffffffffffffffffffffffffffffffff16815260200190815260200160002060008282540192505081905550816067600083815260200190815260200160002060006101000a81548173ffffffffffffffffffffffffffffffffffffffff021916908373ffffffffffffffffffffffffffffffffffffffff160217905550808273ffffffffffffffffffffffffffffffffffffffff16600073ffffffffffffffffffffffffffffffffffffffff167fddf252ad1be2c89b69c2b068fc378daa952ba7f163c4a11628f55a4df523b3ef60405160405180910390a4612f56600083836001612193565b5050565b60007f01ffc9a7000000000000000000000000000000000000000000000000000000007bffffffffffffffffffffffffffffffffffffffffffffffffffffffff1916827bffffffffffffffffffffffffffffffffffffffffffffffffffffffff1916149050919050565b6000604051905090565b600080fd5b600080fd5b60007fffffffff0000000000000000000000000000000000000000000000000000000082169050919050565b61300d81612fd8565b811461301857600080fd5b50565b60008135905061302a81613004565b92915050565b60006020828403121561304657613045612fce565b5b60006130548482850161301b565b91505092915050565b60008115159050919050565b6130728161305d565b82525050565b600060208201905061308d6000830184613069565b92915050565b600081519050919050565b600082825260208201905092915050565b60005b838110156130cd5780820151818401526020810190506130b2565b60008484015250505050565b6000601f19601f8301169050919050565b60006130f582613093565b6130ff818561309e565b935061310f8185602086016130af565b613118816130d9565b840191505092915050565b6000602082019050818103600083015261313d81846130ea565b905092915050565b6000819050919050565b61315881613145565b811461316357600080fd5b50565b6000813590506131758161314f565b92915050565b60006020828403121561319157613190612fce565b5b600061319f84828501613166565b91505092915050565b600073ffffffffffffffffffffffffffffffffffffffff82169050919050565b60006131d3826131a8565b9050919050565b6131e3816131c8565b82525050565b60006020820190506131fe60008301846131da565b92915050565b61320d816131c8565b811461321857600080fd5b50565b60008135905061322a81613204565b92915050565b6000806040838503121561324757613246612fce565b5b60006132558582860161321b565b925050602061326685828601613166565b9150509250929050565b61327981613145565b82525050565b60006020820190506132946000830184613270565b92915050565b6000806000606084860312156132b3576132b2612fce565b5b60006132c18682870161321b565b93505060206132d28682870161321b565b92505060406132e386828701613166565b9150509250925092565b6000819050919050565b613300816132ed565b811461330b57600080fd5b50565b60008135905061331d816132f7565b92915050565b60006020828403121561333957613338612fce565b5b60006133478482850161330e565b91505092915050565b613359816132ed565b82525050565b60006020820190506133746000830184613350565b92915050565b6000806040838503121561339157613390612fce565b5b600061339f8582860161330e565b92505060206133b08582860161321b565b9150509250929050565b6000602082840312156133d0576133cf612fce565b5b60006133de8482850161321b565b91505092915050565b600080600060608486031215613400576133ff612fce565b5b600061340e86828701613166565b935050602061341f86828701613166565b925050604061343086828701613166565b9150509250925092565b6000806040838503121561345157613450612fce565b5b600061345f85828601613166565b92505060206134708582860161321b565b9150509250929050565b6134838161305d565b811461348e57600080fd5b50565b6000813590506134a08161347a565b92915050565b600080604083850312156134bd576134bc612fce565b5b60006134cb8582860161321b565b92505060206134dc85828601613491565b9150509250929050565b600080fd5b600080fd5b7f4e487b7100000000000000000000000000000000000000000000000000000000600052604160045260246000fd5b613528826130d9565b810181811067ffffffffffffffff82111715613547576135466134f0565b5b80604052505050565b600061355a612fc4565b9050613566828261351f565b919050565b600067ffffffffffffffff821115613586576135856134f0565b5b61358f826130d9565b9050602081019050919050565b82818337600083830152505050565b60006135be6135b98461356b565b613550565b9050828152602081018484840111156135da576135d96134eb565b5b6135e584828561359c565b509392505050565b600082601f830112613602576136016134e6565b5b81356136128482602086016135ab565b91505092915050565b6000806000806080858703121561363557613634612fce565b5b60006136438782880161321b565b94505060206136548782880161321b565b935050604061366587828801613166565b925050606085013567ffffffffffffffff81111561368657613685612fd3565b5b613692878288016135ed565b91505092959194509250565b600067ffffffffffffffff82169050919050565b6136bb8161369e565b81146136c657600080fd5b50565b6000813590506136d8816136b2565b92915050565b6000806000606084860312156136f7576136f6612fce565b5b600061370586828701613166565b93505060206137168682870161321b565b9250506040613727868287016136c9565b9150509250925092565b6000806040838503121561374857613747612fce565b5b60006137568582860161321b565b92505060206137678582860161321b565b9150509250929050565b7f4e487b7100000000000000000000000000000000000000000000000000000000600052602260045260246000fd5b600060028204905060018216806137b857607f821691505b6020821081036137cb576137ca613771565b5b50919050565b7f4552433732313a20617070726f76616c20746f2063757272656e74206f776e6560008201527f7200000000000000000000000000000000000000000000000000000000000000602082015250565b600061382d60218361309e565b9150613838826137d1565b604082019050919050565b6000602082019050818103600083015261385c81613820565b9050919050565b7f4552433732313a20617070726f76652063616c6c6572206973206e6f7420746f60008201527f6b656e206f776e6572206f7220617070726f76656420666f7220616c6c000000602082015250565b60006138bf603d8361309e565b91506138ca82613863565b604082019050919050565b600060208201905081810360008301526138ee816138b2565b9050919050565b7f4552433732313a2063616c6c6572206973206e6f7420746f6b656e206f776e6560008201527f72206f7220617070726f76656400000000000000000000000000000000000000602082015250565b6000613951602d8361309e565b915061395c826138f5565b604082019050919050565b6000602082019050818103600083015261398081613944565b9050919050565b7f455243373231456e756d657261626c653a206f776e657220696e646578206f7560008201527f74206f6620626f756e6473000000000000000000000000000000000000000000602082015250565b60006139e3602b8361309e565b91506139ee82613987565b604082019050919050565b60006020820190508181036000830152613a12816139d6565b9050919050565b7f416363657373436f6e74726f6c3a2063616e206f6e6c792072656e6f756e636560008201527f20726f6c657320666f722073656c660000000000000000000000000000000000602082015250565b6000613a75602f8361309e565b9150613a8082613a19565b604082019050919050565b60006020820190508181036000830152613aa481613a68565b9050919050565b7f455243373231456e756d657261626c653a20676c6f62616c20696e646578206f60008201527f7574206f6620626f756e64730000000000000000000000000000000000000000602082015250565b6000613b07602c8361309e565b9150613b1282613aab565b604082019050919050565b60006020820190508181036000830152613b3681613afa565b9050919050565b7f4e487b7100000000000000000000000000000000000000000000000000000000600052603260045260246000fd5b7f4e487b7100000000000000000000000000000000000000000000000000000000600052601160045260246000fd5b6000613ba682613145565b91507fffffffffffffffffffffffffffffffffffffffffffffffffffffffffffffffff8203613bd857613bd7613b6c565b5b600182019050919050565b7f4552433732313a20696e76616c696420746f6b656e2049440000000000000000600082015250565b6000613c1960188361309e565b9150613c2482613be3565b602082019050919050565b60006020820190508181036000830152613c4881613c0c565b9050919050565b7f4552433732313a2061646472657373207a65726f206973206e6f74206120766160008201527f6c6964206f776e65720000000000000000000000000000000000000000000000602082015250565b6000613cab60298361309e565b9150613cb682613c4f565b604082019050919050565b60006020820190508181036000830152613cda81613c9e565b9050919050565b7f496e697469616c697a61626c653a20636f6e747261637420697320616c72656160008201527f647920696e697469616c697a6564000000000000000000000000000000000000602082015250565b6000613d3d602e8361309e565b9150613d4882613ce1565b604082019050919050565b60006020820190508181036000830152613d6c81613d30565b9050919050565b6000819050919050565b600060ff82169050919050565b6000819050919050565b6000613daf613daa613da584613d73565b613d8a565b613d7d565b9050919050565b613dbf81613d94565b82525050565b6000602082019050613dda6000830184613db6565b92915050565b600081905092915050565b6000613df682613093565b613e008185613de0565b9350613e108185602086016130af565b80840191505092915050565b6000613e288285613deb565b9150613e348284613deb565b91508190509392505050565b7f4552433732313a207472616e736665722063616c6c6572206973206e6f74206f60008201527f776e6572206e6f7220617070726f766564000000000000000000000000000000602082015250565b6000613e9c60318361309e565b9150613ea782613e40565b604082019050919050565b60006020820190508181036000830152613ecb81613e8f565b9050919050565b613edb8161369e565b82525050565b6000602082019050613ef66000830184613ed2565b92915050565b7f4552433732313a207472616e736665722066726f6d20696e636f72726563742060008201527f6f776e6572000000000000000000000000000000000000000000000000000000602082015250565b6000613f5860258361309e565b9150613f6382613efc565b604082019050919050565b60006020820190508181036000830152613f8781613f4b565b9050919050565b7f4552433732313a207472616e7366657220746f20746865207a65726f2061646460008201527f7265737300000000000000000000000000000000000000000000000000000000602082015250565b6000613fea60248361309e565b9150613ff582613f8e565b604082019050919050565b6000602082019050818103600083015261401981613fdd565b9050919050565b7f496e697469616c697a61626c653a20636f6e7472616374206973206e6f74206960008201527f6e697469616c697a696e67000000000000000000000000000000000000000000602082015250565b600061407c602b8361309e565b915061408782614020565b604082019050919050565b600060208201905081810360008301526140ab8161406f565b9050919050565b7f4552433732313a20617070726f766520746f2063616c6c657200000000000000600082015250565b60006140e860198361309e565b91506140f3826140b2565b602082019050919050565b60006020820190508181036000830152614117816140db565b9050919050565b7f4552433732313a207472616e7366657220746f206e6f6e20455243373231526560008201527f63656976657220696d706c656d656e7465720000000000000000000000000000602082015250565b600061417a60328361309e565b91506141858261411e565b604082019050919050565b600060208201905081810360008301526141a98161416d565b9050919050565b7f4e487b7100000000000000000000000000000000000000000000000000000000600052601260045260246000fd5b7f455243373231456e756d657261626c653a20636f6e736563757469766520747260008201527f616e7366657273206e6f7420737570706f727465640000000000000000000000602082015250565b600061423b60358361309e565b9150614246826141df565b604082019050919050565b6000602082019050818103600083015261426a8161422e565b9050919050565b7f416363657373436f6e74726f6c3a206163636f756e7420000000000000000000600082015250565b60006142a7601783613de0565b91506142b282614271565b601782019050919050565b7f206973206d697373696e6720726f6c6520000000000000000000000000000000600082015250565b60006142f3601183613de0565b91506142fe826142bd565b601182019050919050565b60006143148261429a565b91506143208285613deb565b915061432b826142e6565b91506143378284613deb565b91508190509392505050565b60008190508160005260206000209050919050565b60006020601f8301049050919050565b600082821b905092915050565b6000600883026143a57fffffffffffffffffffffffffffffffffffffffffffffffffffffffffffffffff82614368565b6143af8683614368565b95508019841693508086168417925050509392505050565b60006143e26143dd6143d884613145565b613d8a565b613145565b9050919050565b6000819050919050565b6143fc836143c7565b614410614408826143e9565b848454614375565b825550505050565b600090565b614425614418565b6144308184846143f3565b505050565b5b818110156144545761444960008261441d565b600181019050614436565b5050565b601f8211156144995761446a81614343565b61447384614358565b81016020851015614482578190505b61449661448e85614358565b830182614435565b50505b505050565b600082821c905092915050565b60006144bc6000198460080261449e565b1980831691505092915050565b60006144d583836144ab565b9150826002028217905092915050565b6144ee82613093565b67ffffffffffffffff811115614507576145066134f0565b5b61451182546137a0565b61451c828285614458565b600060209050601f83116001811461454f576000841561453d578287015190505b61454785826144c9565b8655506145af565b601f19841661455d86614343565b60005b8281101561458557848901518255600182019150602085019450602081019050614560565b868310156145a2578489015161459e601f8916826144ab565b8355505b6001600288020188555050505b505050505050565b600081519050919050565b600082825260208201905092915050565b60006145de826145b7565b6145e881856145c2565b93506145f88185602086016130af565b614601816130d9565b840191505092915050565b600060808201905061462160008301876131da565b61462e60208301866131da565b61463b6040830185613270565b818103606083015261464d81846145d3565b905095945050505050565b60008151905061466781613004565b92915050565b60006020828403121561468357614682612fce565b5b600061469184828501614658565b91505092915050565b60006146a582613145565b91506146b083613145565b92508282039050818111156146c8576146c7613b6c565b5b92915050565b60006146d982613145565b91506146e483613145565b92508282019050808211156146fc576146fb613b6c565b5b92915050565b7f4e487b7100000000000000000000000000000000000000000000000000000000600052603160045260246000fd5b600061473c82613145565b915061474783613145565b925082820261475581613145565b9150828204841483151761476c5761476b613b6c565b5b5092915050565b600061477e82613145565b91506000820361479157614790613b6c565b5b600182039050919050565b7f537472696e67733a20686578206c656e67746820696e73756666696369656e74600082015250565b60006147d260208361309e565b91506147dd8261479c565b602082019050919050565b60006020820190508181036000830152614801816147c5565b9050919050565b7f4552433732313a206d696e7420746f20746865207a65726f2061646472657373600082015250565b600061483e60208361309e565b915061484982614808565b602082019050919050565b6000602082019050818103600083015261486d81614831565b9050919050565b7f4552433732313a20746f6b656e20616c7265616479206d696e74656400000000600082015250565b60006148aa601c8361309e565b91506148b582614874565b602082019050919050565b600060208201905081810360008301526148d98161489d565b905091905056fea264697066735822122058e1519bcbaee896ff2377bcdafc8a193f4bc22c8bbe08a908e899d47441401364736f6c63430008110033",
  "linkReferences": {},
  "deployedLinkReferences": {}
}