{
  "_format": "hh-sol-artifact-1",
  "contractName": "SPUMarket",
  "sourceName": "contracts/SPUMarket.sol",
  "abi": [
    {
      "inputs": [
        {
          "internalType": "address",
          "name": "nftImplementation_",
          "type": "address"
        }
      ],
      "stateMutability": "nonpayable",
      "type": "constructor"
    },
    {
      "anonymous": false,
      "inputs": [
        {
          "indexed": true,
          "internalType": "address",
          "name": "sender",
          "type": "address"
        },
        {
          "indexed": false,
          "internalType": "uint256",
          "name": "amount",
          "type": "uint256"
        }
      ],
      "name": "EtherFlushed",
      "type": "event"
    },
    {
      "anonymous": false,
      "inputs": [
        {
          "indexed": true,
          "internalType": "uint256",
          "name": "rip",
          "type": "uint256"
        },
        {
          "indexed": true,
          "internalType": "address",
          "name": "nft",
          "type": "address"
        }
      ],
      "name": "LandCreated",
      "type": "event"
    },
    {
      "anonymous": false,
      "inputs": [
        {
          "indexed": true,
          "internalType": "uint256",
          "name": "rip",
          "type": "uint256"
        },
        {
          "indexed": true,
          "internalType": "address",
          "name": "nft",
          "type": "address"
        },
        {
          "indexed": true,
          "internalType": "address",
          "name": "wallet",
          "type": "address"
        }
      ],
      "name": "LandLeased",
      "type": "event"
    },
    {
      "anonymous": false,
      "inputs": [
        {
          "indexed": true,
          "internalType": "address",
          "name": "previousOwner",
          "type": "address"
        },
        {
          "indexed": true,
          "internalType": "address",
          "name": "newOwner",
          "type": "address"
        }
      ],
      "name": "OwnershipTransferred",
      "type": "event"
    },
    {
      "anonymous": false,
      "inputs": [
        {
          "indexed": true,
          "internalType": "address",
          "name": "sender",
          "type": "address"
        },
        {
          "indexed": true,
          "internalType": "uint256",
          "name": "amount",
          "type": "uint256"
        }
      ],
      "name": "ReceivedEther",
      "type": "event"
    },
    {
      "inputs": [],
      "name": "NFT_IMPLEMENTATION",
      "outputs": [
        {
          "internalType": "address",
          "name": "",
          "type": "address"
        }
      ],
      "stateMutability": "view",
      "type": "function"
    },
    {
      "inputs": [
        {
          "internalType": "uint256",
          "name": "rip_",
          "type": "uint256"
        },
        {
          "internalType": "uint256",
          "name": "fractions_",
          "type": "uint256"
        },
        {
          "internalType": "uint256",
          "name": "dailyPrice_",
          "type": "uint256"
        }
      ],
      "name": "createLand",
      "outputs": [],
      "stateMutability": "nonpayable",
      "type": "function"
    },
    {
      "inputs": [
        {
          "internalType": "address",
          "name": "_to",
          "type": "address"
        }
      ],
      "name": "flushETH",
      "outputs": [],
      "stateMutability": "nonpayable",
      "type": "function"
    },
    {
      "inputs": [
        {
          "internalType": "uint256",
          "name": "rip_",
          "type": "uint256"
        }
      ],
      "name": "getLandDetail",
      "outputs": [
        {
          "internalType": "address",
          "name": "",
          "type": "address"
        },
        {
          "internalType": "uint256",
          "name": "",
          "type": "uint256"
        },
        {
          "internalType": "uint256",
          "name": "",
          "type": "uint256"
        }
      ],
      "stateMutability": "view",
      "type": "function"
    },
    {
      "inputs": [],
      "name": "landsCreated",
      "outputs": [
        {
          "internalType": "address[]",
          "name": "",
          "type": "address[]"
        }
      ],
      "stateMutability": "view",
      "type": "function"
    },
    {
      "inputs": [
        {
          "internalType": "address",
          "name": "wallet_",
          "type": "address"
        }
      ],
      "name": "leasedLandsByWallet",
      "outputs": [
        {
          "internalType": "address[]",
          "name": "",
          "type": "address[]"
        }
      ],
      "stateMutability": "view",
      "type": "function"
    },
    {
      "inputs": [
        {
          "internalType": "address",
          "name": "",
          "type": "address"
        },
        {
          "internalType": "address",
          "name": "",
          "type": "address"
        },
        {
          "internalType": "uint256",
          "name": "",
          "type": "uint256"
        },
        {
          "internalType": "bytes",
          "name": "",
          "type": "bytes"
        }
      ],
      "name": "onERC721Received",
      "outputs": [
        {
          "internalType": "bytes4",
          "name": "",
          "type": "bytes4"
        }
      ],
      "stateMutability": "pure",
      "type": "function"
    },
    {
      "inputs": [],
      "name": "owner",
      "outputs": [
        {
          "internalType": "address",
          "name": "",
          "type": "address"
        }
      ],
      "stateMutability": "view",
      "type": "function"
    },
    {
      "inputs": [],
      "name": "renounceOwnership",
      "outputs": [],
      "stateMutability": "nonpayable",
      "type": "function"
    },
    {
      "inputs": [
        {
          "internalType": "uint256",
          "name": "rip_",
          "type": "uint256"
        },
        {
          "internalType": "uint256",
          "name": "amount_",
          "type": "uint256"
        },
        {
          "internalType": "uint256",
          "name": "days_",
          "type": "uint256"
        }
      ],
      "name": "rent",
      "outputs": [],
      "stateMutability": "payable",
      "type": "function"
    },
    {
      "inputs": [
        {
          "internalType": "address",
          "name": "newOwner",
          "type": "address"
        }
      ],
      "name": "transferOwnership",
      "outputs": [],
      "stateMutability": "nonpayable",
      "type": "function"
    },
    {
      "stateMutability": "payable",
      "type": "receive"
    }
  ],
  "bytecode": "0x60a06040523480156200001157600080fd5b50604051620021b4380380620021b48339818101604052810190620000379190620001c8565b620000576200004b6200009260201b60201c565b6200009a60201b60201c565b8073ffffffffffffffffffffffffffffffffffffffff1660808173ffffffffffffffffffffffffffffffffffffffff168152505050620001fa565b600033905090565b60008060009054906101000a900473ffffffffffffffffffffffffffffffffffffffff169050816000806101000a81548173ffffffffffffffffffffffffffffffffffffffff021916908373ffffffffffffffffffffffffffffffffffffffff1602179055508173ffffffffffffffffffffffffffffffffffffffff168173ffffffffffffffffffffffffffffffffffffffff167f8be0079c531659141344cd1fd0a4f28419497f9722a3daafe3b4186f6b6457e060405160405180910390a35050565b600080fd5b600073ffffffffffffffffffffffffffffffffffffffff82169050919050565b6000620001908262000163565b9050919050565b620001a28162000183565b8114620001ae57600080fd5b50565b600081519050620001c28162000197565b92915050565b600060208284031215620001e157620001e06200015e565b5b6000620001f184828501620001b1565b91505092915050565b608051611f976200021d600039600081816103500152610f690152611f976000f3fe6080604052600436106100a05760003560e01c806392ef59c91161006457806392ef59c9146101bb57806399b23035146101e6578063afb0ccb114610223578063dc42688114610262578063f2fde38b1461028b578063f69d2bcc146102b4576100f2565b8063058f73f1146100f7578063075b862e14610120578063150b7a021461013c578063715018a6146101795780638da5cb5b14610190576100f2565b366100f257346100ae6102df565b73ffffffffffffffffffffffffffffffffffffffff167fa419615bc8fda4c87663805ee2a3597a6d71c1d476911d9892f340d965bc7bf160405160405180910390a3005b600080fd5b34801561010357600080fd5b5061011e600480360381019061011991906114c9565b6102e7565b005b61013a600480360381019061013591906114c9565b610446565b005b34801561014857600080fd5b50610163600480360381019061015e91906115df565b6109ac565b60405161017091906116a2565b60405180910390f35b34801561018557600080fd5b5061018e6109c1565b005b34801561019c57600080fd5b506101a56109d5565b6040516101b291906116cc565b60405180910390f35b3480156101c757600080fd5b506101d06109fe565b6040516101dd91906117a5565b60405180910390f35b3480156101f257600080fd5b5061020d600480360381019061020891906117c7565b610aed565b60405161021a91906117a5565b60405180910390f35b34801561022f57600080fd5b5061024a600480360381019061024591906117f4565b610c69565b60405161025993929190611830565b60405180910390f35b34801561026e57600080fd5b50610289600480360381019061028491906117c7565b610d85565b005b34801561029757600080fd5b506102b260048036038101906102ad91906117c7565b610ee4565b005b3480156102c057600080fd5b506102c9610f67565b6040516102d691906116cc565b60405180910390f35b600033905090565b6102ef610f8b565b6000151561030784600161100990919063ffffffff16565b151514610349576040517f08c379a0000000000000000000000000000000000000000000000000000000008152600401610340906118c4565b60405180910390fd5b60006103747f0000000000000000000000000000000000000000000000000000000000000000611023565b90508073ffffffffffffffffffffffffffffffffffffffff166380d859118585856040518463ffffffff1660e01b81526004016103b3939291906118e4565b600060405180830381600087803b1580156103cd57600080fd5b505af11580156103e1573d6000803e3d6000fd5b505050506103fb848260016110dd9092919063ffffffff16565b508073ffffffffffffffffffffffffffffffffffffffff16847f9057270c8b8ada5482b02b2e8c27f21fcc080f96b61e960d87ca6a101bffb64260405160405180910390a350505050565b600061045c84600161111290919063ffffffff16565b905034828273ffffffffffffffffffffffffffffffffffffffff1663fa66a5f46040518163ffffffff1660e01b8152600401602060405180830381865afa1580156104ab573d6000803e3d6000fd5b505050506040513d601f19601f820116820180604052508101906104cf9190611930565b856104da919061198c565b6104e4919061198c565b14610524576040517f08c379a000000000000000000000000000000000000000000000000000000000815260040161051b90611a1a565b60405180910390fd5b8073ffffffffffffffffffffffffffffffffffffffff166318160ddd6040518163ffffffff1660e01b8152600401602060405180830381865afa15801561056f573d6000803e3d6000fd5b505050506040513d601f19601f820116820180604052508101906105939190611930565b838273ffffffffffffffffffffffffffffffffffffffff1663629f3342426040518263ffffffff1660e01b81526004016105cd9190611a3a565b602060405180830381865afa1580156105ea573d6000803e3d6000fd5b505050506040513d601f19601f8201168201806040525081019061060e9190611930565b6106189190611a55565b1115610659576040517f08c379a000000000000000000000000000000000000000000000000000000000815260040161065090611ad5565b60405180910390fd5b8073ffffffffffffffffffffffffffffffffffffffff166318160ddd6040518163ffffffff1660e01b8152600401602060405180830381865afa1580156106a4573d6000803e3d6000fd5b505050506040513d601f19601f820116820180604052508101906106c89190611930565b8173ffffffffffffffffffffffffffffffffffffffff1663629f3342426040518263ffffffff1660e01b81526004016107019190611a3a565b602060405180830381865afa15801561071e573d6000803e3d6000fd5b505050506040513d601f19601f820116820180604052508101906107429190611930565b10610782576040517f08c379a000000000000000000000000000000000000000000000000000000000815260040161077990611b41565b60405180910390fd5b60005b8173ffffffffffffffffffffffffffffffffffffffff166318160ddd6040518163ffffffff1660e01b8152600401602060405180830381865afa1580156107d0573d6000803e3d6000fd5b505050506040513d601f19601f820116820180604052508101906107f49190611930565b8110156109a557428273ffffffffffffffffffffffffffffffffffffffff16638fc88c48836040518263ffffffff1660e01b81526004016108359190611a3a565b602060405180830381865afa158015610852573d6000803e3d6000fd5b505050506040513d601f19601f820116820180604052508101906108769190611930565b1080156108835750600084115b15610992578173ffffffffffffffffffffffffffffffffffffffff1663e030565e826108ad6102df565b6201518067ffffffffffffffff16876108c6919061198c565b426108d19190611a55565b6040518463ffffffff1660e01b81526004016108ef93929190611b84565b600060405180830381600087803b15801561090957600080fd5b505af115801561091d573d6000803e3d6000fd5b50505050838061092c90611bbb565b9450506109376102df565b73ffffffffffffffffffffffffffffffffffffffff168273ffffffffffffffffffffffffffffffffffffffff16867fc745023cf8230dfbb1c1c106ec6202e2244da8f4f0ffa3b2524076dd0834ecce60405160405180910390a45b808061099d90611be4565b915050610785565b5050505050565b600063150b7a0260e01b905095945050505050565b6109c9610f8b565b6109d3600061112f565b565b60008060009054906101000a900473ffffffffffffffffffffffffffffffffffffffff16905090565b60606000610a0c60016111f3565b67ffffffffffffffff811115610a2557610a24611c2c565b5b604051908082528060200260200182016040528015610a535781602001602082028036833780820191505090505b50905060005b610a6360016111f3565b811015610ae5576000610a8082600161120890919063ffffffff16565b91505080838381518110610a9757610a96611c5b565b5b602002602001019073ffffffffffffffffffffffffffffffffffffffff16908173ffffffffffffffffffffffffffffffffffffffff1681525050508080610add90611be4565b915050610a59565b508091505090565b60606000610afb60016111f3565b67ffffffffffffffff811115610b1457610b13611c2c565b5b604051908082528060200260200182016040528015610b425781602001602082028036833780820191505090505b50905060005b610b5260016111f3565b811015610c5f576000610b6f82600161120890919063ffffffff16565b915050600081905060008173ffffffffffffffffffffffffffffffffffffffff16639209ad7342896040518363ffffffff1660e01b8152600401610bb4929190611c8a565b602060405180830381865afa158015610bd1573d6000803e3d6000fd5b505050506040513d601f19601f82011682018060405250810190610bf59190611930565b1115610c4a5781848481518110610c0f57610c0e611c5b565b5b602002602001019073ffffffffffffffffffffffffffffffffffffffff16908173ffffffffffffffffffffffffffffffffffffffff16815250505b50508080610c5790611be4565b915050610b48565b5080915050919050565b600080600080610c8385600161111290919063ffffffff16565b9050610c9985600161111290919063ffffffff16565b8173ffffffffffffffffffffffffffffffffffffffff1663fa66a5f46040518163ffffffff1660e01b8152600401602060405180830381865afa158015610ce4573d6000803e3d6000fd5b505050506040513d601f19601f82011682018060405250810190610d089190611930565b8273ffffffffffffffffffffffffffffffffffffffff166318160ddd6040518163ffffffff1660e01b8152600401602060405180830381865afa158015610d53573d6000803e3d6000fd5b505050506040513d601f19601f82011682018060405250810190610d779190611930565b935093509350509193909250565b610d8d610f8b565b600073ffffffffffffffffffffffffffffffffffffffff168173ffffffffffffffffffffffffffffffffffffffff1603610dfc576040517f08c379a0000000000000000000000000000000000000000000000000000000008152600401610df390611cff565b60405180910390fd5b600047905060008111610e44576040517f08c379a0000000000000000000000000000000000000000000000000000000008152600401610e3b90611d6b565b60405180910390fd5b8173ffffffffffffffffffffffffffffffffffffffff166108fc829081150290604051600060405180830381858888f19350505050158015610e8a573d6000803e3d6000fd5b50610e936102df565b73ffffffffffffffffffffffffffffffffffffffff167f7e8bfbce8498a152a0bedcf83edec38ffb0a13b19a197cb7c2686fc6371013ab82604051610ed89190611a3a565b60405180910390a25050565b610eec610f8b565b600073ffffffffffffffffffffffffffffffffffffffff168173ffffffffffffffffffffffffffffffffffffffff1603610f5b576040517f08c379a0000000000000000000000000000000000000000000000000000000008152600401610f5290611dfd565b60405180910390fd5b610f648161112f565b50565b7f000000000000000000000000000000000000000000000000000000000000000081565b610f936102df565b73ffffffffffffffffffffffffffffffffffffffff16610fb16109d5565b73ffffffffffffffffffffffffffffffffffffffff1614611007576040517f08c379a0000000000000000000000000000000000000000000000000000000008152600401610ffe90611e69565b60405180910390fd5b565b600061101b836000018360001b611234565b905092915050565b6000763d602d80600a3d3981f3363d3d373d3d3d363d730000008260601b60e81c176000526e5af43d82803e903d91602b57fd5bf38260781b17602052603760096000f09050600073ffffffffffffffffffffffffffffffffffffffff168173ffffffffffffffffffffffffffffffffffffffff16036110d8576040517f08c379a00000000000000000000000000000000000000000000000000000000081526004016110cf90611ed5565b60405180910390fd5b919050565b6000611109846000018460001b8473ffffffffffffffffffffffffffffffffffffffff1660001b611254565b90509392505050565b6000611124836000018360001b61128f565b60001c905092915050565b60008060009054906101000a900473ffffffffffffffffffffffffffffffffffffffff169050816000806101000a81548173ffffffffffffffffffffffffffffffffffffffff021916908373ffffffffffffffffffffffffffffffffffffffff1602179055508173ffffffffffffffffffffffffffffffffffffffff168173ffffffffffffffffffffffffffffffffffffffff167f8be0079c531659141344cd1fd0a4f28419497f9722a3daafe3b4186f6b6457e060405160405180910390a35050565b60006112018260000161130b565b9050919050565b60008060008061121b8660000186611320565b915091508160001c8160001c9350935050509250929050565b600061124c828460000161136090919063ffffffff16565b905092915050565b60008184600201600085815260200190815260200160002081905550611286838560000161137790919063ffffffff16565b90509392505050565b6000808360020160008481526020019081526020016000205490506000801b811415806112c257506112c18484611234565b5b611301576040517f08c379a00000000000000000000000000000000000000000000000000000000081526004016112f890611f41565b60405180910390fd5b8091505092915050565b60006113198260000161138e565b9050919050565b600080600061133b84866000016113a390919063ffffffff16565b9050808560020160008381526020019081526020016000205492509250509250929050565b600061136f83600001836113ba565b905092915050565b600061138683600001836113dd565b905092915050565b600061139c8260000161144d565b9050919050565b60006113b2836000018361145e565b905092915050565b600080836001016000848152602001908152602001600020541415905092915050565b60006113e983836113ba565b611442578260000182908060018154018082558091505060019003906000526020600020016000909190919091505582600001805490508360010160008481526020019081526020016000208190555060019050611447565b600090505b92915050565b600081600001805490509050919050565b600082600001828154811061147657611475611c5b565b5b9060005260206000200154905092915050565b600080fd5b600080fd5b6000819050919050565b6114a681611493565b81146114b157600080fd5b50565b6000813590506114c38161149d565b92915050565b6000806000606084860312156114e2576114e1611489565b5b60006114f0868287016114b4565b9350506020611501868287016114b4565b9250506040611512868287016114b4565b9150509250925092565b600073ffffffffffffffffffffffffffffffffffffffff82169050919050565b60006115478261151c565b9050919050565b6115578161153c565b811461156257600080fd5b50565b6000813590506115748161154e565b92915050565b600080fd5b600080fd5b600080fd5b60008083601f84011261159f5761159e61157a565b5b8235905067ffffffffffffffff8111156115bc576115bb61157f565b5b6020830191508360018202830111156115d8576115d7611584565b5b9250929050565b6000806000806000608086880312156115fb576115fa611489565b5b600061160988828901611565565b955050602061161a88828901611565565b945050604061162b888289016114b4565b935050606086013567ffffffffffffffff81111561164c5761164b61148e565b5b61165888828901611589565b92509250509295509295909350565b60007fffffffff0000000000000000000000000000000000000000000000000000000082169050919050565b61169c81611667565b82525050565b60006020820190506116b76000830184611693565b92915050565b6116c68161153c565b82525050565b60006020820190506116e160008301846116bd565b92915050565b600081519050919050565b600082825260208201905092915050565b6000819050602082019050919050565b61171c8161153c565b82525050565b600061172e8383611713565b60208301905092915050565b6000602082019050919050565b6000611752826116e7565b61175c81856116f2565b935061176783611703565b8060005b8381101561179857815161177f8882611722565b975061178a8361173a565b92505060018101905061176b565b5085935050505092915050565b600060208201905081810360008301526117bf8184611747565b905092915050565b6000602082840312156117dd576117dc611489565b5b60006117eb84828501611565565b91505092915050565b60006020828403121561180a57611809611489565b5b6000611818848285016114b4565b91505092915050565b61182a81611493565b82525050565b600060608201905061184560008301866116bd565b6118526020830185611821565b61185f6040830184611821565b949350505050565b600082825260208201905092915050565b7f746869732072697020616c726561647920657869737473000000000000000000600082015250565b60006118ae601783611867565b91506118b982611878565b602082019050919050565b600060208201905081810360008301526118dd816118a1565b9050919050565b60006060820190506118f96000830186611821565b6119066020830185611821565b6119136040830184611821565b949350505050565b60008151905061192a8161149d565b92915050565b60006020828403121561194657611945611489565b5b60006119548482850161191b565b91505092915050565b7f4e487b7100000000000000000000000000000000000000000000000000000000600052601160045260246000fd5b600061199782611493565b91506119a283611493565b92508282026119b081611493565b915082820484148315176119c7576119c661195d565b5b5092915050565b7f696e636f72726563742076616c75652073656e74000000000000000000000000600082015250565b6000611a04601483611867565b9150611a0f826119ce565b602082019050919050565b60006020820190508181036000830152611a33816119f7565b9050919050565b6000602082019050611a4f6000830184611821565b92915050565b6000611a6082611493565b9150611a6b83611493565b9250828201905080821115611a8357611a8261195d565b5b92915050565b7f616d6f756e7420657863656564206c616e642073697a65000000000000000000600082015250565b6000611abf601783611867565b9150611aca82611a89565b602082019050919050565b60006020820190508181036000830152611aee81611ab2565b9050919050565b7f616c6c206e66747320617265206c656173656400000000000000000000000000600082015250565b6000611b2b601383611867565b9150611b3682611af5565b602082019050919050565b60006020820190508181036000830152611b5a81611b1e565b9050919050565b600067ffffffffffffffff82169050919050565b611b7e81611b61565b82525050565b6000606082019050611b996000830186611821565b611ba660208301856116bd565b611bb36040830184611b75565b949350505050565b6000611bc682611493565b915060008203611bd957611bd861195d565b5b600182039050919050565b6000611bef82611493565b91507fffffffffffffffffffffffffffffffffffffffffffffffffffffffffffffffff8203611c2157611c2061195d565b5b600182019050919050565b7f4e487b7100000000000000000000000000000000000000000000000000000000600052604160045260246000fd5b7f4e487b7100000000000000000000000000000000000000000000000000000000600052603260045260246000fd5b6000604082019050611c9f6000830185611821565b611cac60208301846116bd565b9392505050565b7f63616e6e6f7420776974686472617720746f207a65726f206164647265737300600082015250565b6000611ce9601f83611867565b9150611cf482611cb3565b602082019050919050565b60006020820190508181036000830152611d1881611cdc565b9050919050565b7f6e6f20657468657220746f207769746864726177000000000000000000000000600082015250565b6000611d55601483611867565b9150611d6082611d1f565b602082019050919050565b60006020820190508181036000830152611d8481611d48565b9050919050565b7f4f776e61626c653a206e6577206f776e657220697320746865207a65726f206160008201527f6464726573730000000000000000000000000000000000000000000000000000602082015250565b6000611de7602683611867565b9150611df282611d8b565b604082019050919050565b60006020820190508181036000830152611e1681611dda565b9050919050565b7f4f776e61626c653a2063616c6c6572206973206e6f7420746865206f776e6572600082015250565b6000611e53602083611867565b9150611e5e82611e1d565b602082019050919050565b60006020820190508181036000830152611e8281611e46565b9050919050565b7f455243313136373a20637265617465206661696c656400000000000000000000600082015250565b6000611ebf601683611867565b9150611eca82611e89565b602082019050919050565b60006020820190508181036000830152611eee81611eb2565b9050919050565b7f456e756d657261626c654d61703a206e6f6e6578697374656e74206b65790000600082015250565b6000611f2b601e83611867565b9150611f3682611ef5565b602082019050919050565b60006020820190508181036000830152611f5a81611f1e565b905091905056fea26469706673582212200ba7abd308e71df2f64a88d9675e9a13b9426f45ea94385eb14c7c92ff25158164736f6c63430008110033",
  "linkReferences": {},
  "deployedLinkReferences": {}
}